{
  "_format": "hh-sol-artifact-1",
  "contractName": "SupplyChain",
  "sourceName": "contracts/SupplyChain.sol",
  "abi": [
    {
      "inputs": [],
      "stateMutability": "nonpayable",
      "type": "constructor"
    },
    {
      "anonymous": false,
      "inputs": [
        {
          "indexed": true,
          "internalType": "address",
          "name": "_address",
          "type": "address"
        },
        {
          "indexed": false,
          "internalType": "bool",
          "name": "_authorized",
          "type": "bool"
        }
      ],
      "name": "AuthorizationChanged",
      "type": "event"
    },
    {
      "anonymous": false,
      "inputs": [
        {
          "indexed": false,
          "internalType": "uint256",
          "name": "orderId",
          "type": "uint256"
        }
      ],
      "name": "OrderDelivered",
      "type": "event"
    },
    {
      "anonymous": false,
      "inputs": [
        {
          "indexed": false,
          "internalType": "uint256",
          "name": "orderId",
          "type": "uint256"
        }
      ],
      "name": "OrderPlaced",
      "type": "event"
    },
    {
      "anonymous": false,
      "inputs": [
        {
          "indexed": false,
          "internalType": "uint256",
          "name": "orderId",
          "type": "uint256"
        }
      ],
      "name": "OrderShipped",
      "type": "event"
    },
    {
      "anonymous": false,
      "inputs": [
        {
          "indexed": true,
          "internalType": "uint256",
          "name": "productId",
          "type": "uint256"
        },
        {
          "indexed": false,
          "internalType": "string",
          "name": "name",
          "type": "string"
        },
        {
          "indexed": false,
          "internalType": "uint256",
          "name": "price",
          "type": "uint256"
        },
        {
          "indexed": false,
          "internalType": "uint256",
          "name": "stock",
          "type": "uint256"
        }
      ],
      "name": "ProductAdded",
      "type": "event"
    },
    {
      "anonymous": false,
      "inputs": [
        {
          "indexed": false,
          "internalType": "uint256",
          "name": "orderId",
          "type": "uint256"
        },
        {
          "indexed": false,
          "internalType": "string",
          "name": "location",
          "type": "string"
        },
        {
          "indexed": false,
          "internalType": "enum SupplyChain.ShipmentStatus",
          "name": "status",
          "type": "uint8"
        }
      ],
      "name": "ShipmentUpdated",
      "type": "event"
    },
    {
      "inputs": [
        {
          "internalType": "string",
          "name": "_name",
          "type": "string"
        },
        {
          "internalType": "uint256",
          "name": "_price",
          "type": "uint256"
        },
        {
          "internalType": "uint256",
          "name": "_stock",
          "type": "uint256"
        }
      ],
      "name": "addProduct",
      "outputs": [],
      "stateMutability": "nonpayable",
      "type": "function"
    },
    {
      "inputs": [
        {
          "internalType": "address",
          "name": "",
          "type": "address"
        }
      ],
      "name": "authorizedAddresses",
      "outputs": [
        {
          "internalType": "bool",
          "name": "",
          "type": "bool"
        }
      ],
      "stateMutability": "view",
      "type": "function"
    },
    {
      "inputs": [
        {
          "internalType": "uint256",
          "name": "_orderId",
          "type": "uint256"
        }
      ],
      "name": "deliverOrder",
      "outputs": [],
      "stateMutability": "nonpayable",
      "type": "function"
    },
    {
      "inputs": [
        {
          "internalType": "uint256",
          "name": "",
          "type": "uint256"
        }
      ],
      "name": "inventory",
      "outputs": [
        {
          "internalType": "uint256",
          "name": "",
          "type": "uint256"
        }
      ],
      "stateMutability": "view",
      "type": "function"
    },
    {
      "inputs": [
        {
          "internalType": "uint256",
          "name": "_productId",
          "type": "uint256"
        }
      ],
      "name": "listProduct",
      "outputs": [
        {
          "internalType": "string",
          "name": "",
          "type": "string"
        },
        {
          "internalType": "uint256",
          "name": "",
          "type": "uint256"
        },
        {
          "internalType": "uint256",
          "name": "",
          "type": "uint256"
        }
      ],
      "stateMutability": "view",
      "type": "function"
    },
    {
      "inputs": [],
      "name": "orderCount",
      "outputs": [
        {
          "internalType": "uint256",
          "name": "",
          "type": "uint256"
        }
      ],
      "stateMutability": "view",
      "type": "function"
    },
    {
      "inputs": [
        {
          "internalType": "uint256",
          "name": "",
          "type": "uint256"
        }
      ],
      "name": "orders",
      "outputs": [
        {
          "internalType": "uint256",
          "name": "id",
          "type": "uint256"
        },
        {
          "internalType": "uint256",
          "name": "total",
          "type": "uint256"
        },
        {
          "internalType": "address",
          "name": "client",
          "type": "address"
        },
        {
          "internalType": "enum SupplyChain.OrderStatus",
          "name": "status",
          "type": "uint8"
        }
      ],
      "stateMutability": "view",
      "type": "function"
    },
    {
      "inputs": [],
      "name": "owner",
      "outputs": [
        {
          "internalType": "address",
          "name": "",
          "type": "address"
        }
      ],
      "stateMutability": "view",
      "type": "function"
    },
    {
      "inputs": [
        {
          "internalType": "uint256[]",
          "name": "_productIds",
          "type": "uint256[]"
        },
        {
          "internalType": "uint256[]",
          "name": "_quantities",
          "type": "uint256[]"
        }
      ],
      "name": "placeOrder",
      "outputs": [],
      "stateMutability": "payable",
      "type": "function"
    },
    {
      "inputs": [],
      "name": "productCount",
      "outputs": [
        {
          "internalType": "uint256",
          "name": "",
          "type": "uint256"
        }
      ],
      "stateMutability": "view",
      "type": "function"
    },
    {
      "inputs": [
        {
          "internalType": "uint256",
          "name": "",
          "type": "uint256"
        }
      ],
      "name": "productOwners",
      "outputs": [
        {
          "internalType": "address",
          "name": "",
          "type": "address"
        }
      ],
      "stateMutability": "view",
      "type": "function"
    },
    {
      "inputs": [
        {
          "internalType": "uint256",
          "name": "",
          "type": "uint256"
        }
      ],
      "name": "products",
      "outputs": [
        {
          "internalType": "uint256",
          "name": "id",
          "type": "uint256"
        },
        {
          "internalType": "string",
          "name": "name",
          "type": "string"
        },
        {
          "internalType": "uint256",
          "name": "price",
          "type": "uint256"
        }
      ],
      "stateMutability": "view",
      "type": "function"
    },
    {
      "inputs": [
        {
          "internalType": "address",
          "name": "_address",
          "type": "address"
        },
        {
          "internalType": "bool",
          "name": "_authorized",
          "type": "bool"
        }
      ],
      "name": "setAuthorization",
      "outputs": [],
      "stateMutability": "nonpayable",
      "type": "function"
    },
    {
      "inputs": [
        {
          "internalType": "uint256",
          "name": "_orderId",
          "type": "uint256"
        }
      ],
      "name": "shipOrder",
      "outputs": [],
      "stateMutability": "nonpayable",
      "type": "function"
    },
    {
      "inputs": [],
      "name": "shipmentCount",
      "outputs": [
        {
          "internalType": "uint256",
          "name": "",
          "type": "uint256"
        }
      ],
      "stateMutability": "view",
      "type": "function"
    },
    {
      "inputs": [
        {
          "internalType": "uint256",
          "name": "",
          "type": "uint256"
        }
      ],
      "name": "shipments",
      "outputs": [
        {
          "internalType": "uint256",
          "name": "orderId",
          "type": "uint256"
        },
        {
          "internalType": "string",
          "name": "location",
          "type": "string"
        },
        {
          "internalType": "enum SupplyChain.ShipmentStatus",
          "name": "status",
          "type": "uint8"
        }
      ],
      "stateMutability": "view",
      "type": "function"
    },
    {
      "inputs": [
        {
          "internalType": "uint256",
          "name": "_productId",
          "type": "uint256"
        },
        {
          "internalType": "uint256",
          "name": "_quantity",
          "type": "uint256"
        }
      ],
      "name": "updateInventory",
      "outputs": [],
      "stateMutability": "nonpayable",
      "type": "function"
    },
    {
      "inputs": [
        {
          "internalType": "uint256",
          "name": "_orderId",
          "type": "uint256"
        },
        {
          "internalType": "string",
          "name": "_location",
          "type": "string"
        },
        {
          "internalType": "enum SupplyChain.ShipmentStatus",
          "name": "_status",
          "type": "uint8"
        }
      ],
      "name": "updateShipment",
      "outputs": [],
      "stateMutability": "nonpayable",
      "type": "function"
    },
    {
      "inputs": [],
      "name": "withdraw",
      "outputs": [],
      "stateMutability": "nonpayable",
      "type": "function"
    }
  ],
  "bytecode": "0x60806040523480156200001157600080fd5b5033600960006101000a81548173ffffffffffffffffffffffffffffffffffffffff021916908373ffffffffffffffffffffffffffffffffffffffff160217905550600160046000600960009054906101000a900473ffffffffffffffffffffffffffffffffffffffff1673ffffffffffffffffffffffffffffffffffffffff1673ffffffffffffffffffffffffffffffffffffffff16815260200190815260200160002060006101000a81548160ff0219169083151502179055506000600190505b60065481116200014657336005600083815260200190815260200160002060006101000a81548173ffffffffffffffffffffffffffffffffffffffff021916908373ffffffffffffffffffffffffffffffffffffffff16021790555080806200013d9062000186565b915050620000d4565b50620001d3565b7f4e487b7100000000000000000000000000000000000000000000000000000000600052601160045260246000fd5b6000819050919050565b600062000193826200017c565b91507fffffffffffffffffffffffffffffffffffffffffffffffffffffffffffffffff8203620001c857620001c76200014d565b5b600182019050919050565b612c9780620001e36000396000f3fe6080604052600436106101145760003560e01c80638da5cb5b116100a0578063ddff5e7d11610064578063ddff5e7d146103bf578063e0f6ef87146103e8578063eecea00014610413578063f19e207e1461043c578063ff2957531461047957610114565b80638da5cb5b146102d05780639aff51c6146102fb578063a85c38ef14610317578063aace20b714610357578063ad95a8a21461038257610114565b80633ccfd60b116100e75780633ccfd60b146101d55780634272ee18146101ec578063522547a8146102295780637acc0b20146102525780638890fe981461029157610114565b8063125b0b3414610119578063194c302c146101425780632453ffa81461016b5780632ac08a9314610196575b600080fd5b34801561012557600080fd5b50610140600480360381019061013b9190611cfb565b6104a2565b005b34801561014e57600080fd5b5061016960048036038101906101649190611d6a565b6106ad565b005b34801561017757600080fd5b5061018061090e565b60405161018d9190611da6565b60405180910390f35b3480156101a257600080fd5b506101bd60048036038101906101b89190611d6a565b610914565b6040516101cc93929190611eb7565b60405180910390f35b3480156101e157600080fd5b506101ea6109d3565b005b3480156101f857600080fd5b50610213600480360381019061020e9190611d6a565b610ace565b6040516102209190611da6565b60405180910390f35b34801561023557600080fd5b50610250600480360381019061024b9190611ef5565b610ae6565b005b34801561025e57600080fd5b5061027960048036038101906102749190611d6a565b610bf8565b60405161028893929190611f35565b60405180910390f35b34801561029d57600080fd5b506102b860048036038101906102b39190611d6a565b610caa565b6040516102c793929190611f73565b60405180910390f35b3480156102dc57600080fd5b506102e5610dbf565b6040516102f29190611ff2565b60405180910390f35b610315600480360381019061031091906120d5565b610de5565b005b34801561032357600080fd5b5061033e60048036038101906103399190611d6a565b6110b1565b60405161034e9493929190612195565b60405180910390f35b34801561036357600080fd5b5061036c61110e565b6040516103799190611da6565b60405180910390f35b34801561038e57600080fd5b506103a960048036038101906103a49190611d6a565b611114565b6040516103b69190611ff2565b60405180910390f35b3480156103cb57600080fd5b506103e660048036038101906103e19190611d6a565b611147565b005b3480156103f457600080fd5b506103fd6113f8565b60405161040a9190611da6565b60405180910390f35b34801561041f57600080fd5b5061043a6004803603810190610435919061223e565b6113fe565b005b34801561044857600080fd5b50610463600480360381019061045e919061227e565b611537565b60405161047091906122ba565b60405180910390f35b34801561048557600080fd5b506104a0600480360381019061049b91906122fa565b611557565b005b600960009054906101000a900473ffffffffffffffffffffffffffffffffffffffff1673ffffffffffffffffffffffffffffffffffffffff163373ffffffffffffffffffffffffffffffffffffffff1614806105475750600460003373ffffffffffffffffffffffffffffffffffffffff1673ffffffffffffffffffffffffffffffffffffffff16815260200190815260200160002060009054906101000a900460ff165b610586576040517f08c379a000000000000000000000000000000000000000000000000000000000815260040161057d906123b5565b60405180910390fd5b6006600081548092919061059990612404565b9190505550600060065490506040518060600160405280828152602001858152602001848152506000808381526020019081526020016000206000820151816000015560208201518160010190816105f19190612658565b5060408201518160020155905050816003600083815260200190815260200160002081905550336005600083815260200190815260200160002060006101000a81548173ffffffffffffffffffffffffffffffffffffffff021916908373ffffffffffffffffffffffffffffffffffffffff1602179055506006547f0107e99fb43ba873db8a5ce7c34a12cd44cd3041167cff32040ddb6aca455ae685858560405161069f93929190611f73565b60405180910390a250505050565b600960009054906101000a900473ffffffffffffffffffffffffffffffffffffffff1673ffffffffffffffffffffffffffffffffffffffff163373ffffffffffffffffffffffffffffffffffffffff1614806107525750600460003373ffffffffffffffffffffffffffffffffffffffff1673ffffffffffffffffffffffffffffffffffffffff16815260200190815260200160002060009054906101000a900460ff165b610791576040517f08c379a0000000000000000000000000000000000000000000000000000000008152600401610788906123b5565b60405180910390fd5b600060016000838152602001908152602001600020905060008160000154036107ef576040517f08c379a00000000000000000000000000000000000000000000000000000000081526004016107e690612776565b60405180910390fd5b6000600281111561080357610802611e40565b5b8160040160149054906101000a900460ff16600281111561082757610826611e40565b5b14610867576040517f08c379a000000000000000000000000000000000000000000000000000000000815260040161085e906127e2565b60405180910390fd5b60018160040160146101000a81548160ff0219169083600281111561088f5761088e611e40565b5b021790555060016002600084815260200190815260200160002060020160006101000a81548160ff021916908360028111156108ce576108cd611e40565b5b02179055507fe3ce5f36666aec295b2ed1a858caf4782066e5e8c1a5a5da7ba6551b14fcfdcb826040516109029190611da6565b60405180910390a15050565b60075481565b600260205280600052604060002060009150905080600001549080600101805461093d9061247b565b80601f01602080910402602001604051908101604052809291908181526020018280546109699061247b565b80156109b65780601f1061098b576101008083540402835291602001916109b6565b820191906000526020600020905b81548152906001019060200180831161099957829003601f168201915b5050505050908060020160009054906101000a900460ff16905083565b600960009054906101000a900473ffffffffffffffffffffffffffffffffffffffff1673ffffffffffffffffffffffffffffffffffffffff163373ffffffffffffffffffffffffffffffffffffffff1614610a63576040517f08c379a0000000000000000000000000000000000000000000000000000000008152600401610a5a9061284e565b60405180910390fd5b600960009054906101000a900473ffffffffffffffffffffffffffffffffffffffff1673ffffffffffffffffffffffffffffffffffffffff166108fc479081150290604051600060405180830381858888f19350505050158015610acb573d6000803e3d6000fd5b50565b60036020528060005260406000206000915090505481565b600960009054906101000a900473ffffffffffffffffffffffffffffffffffffffff1673ffffffffffffffffffffffffffffffffffffffff163373ffffffffffffffffffffffffffffffffffffffff161480610b8b5750600460003373ffffffffffffffffffffffffffffffffffffffff1673ffffffffffffffffffffffffffffffffffffffff16815260200190815260200160002060009054906101000a900460ff165b610bca576040517f08c379a0000000000000000000000000000000000000000000000000000000008152600401610bc1906123b5565b60405180910390fd5b80600360008481526020019081526020016000206000828254610bed919061286e565b925050819055505050565b6000602052806000526040600020600091509050806000015490806001018054610c219061247b565b80601f0160208091040260200160405190810160405280929190818152602001828054610c4d9061247b565b8015610c9a5780601f10610c6f57610100808354040283529160200191610c9a565b820191906000526020600020905b815481529060010190602001808311610c7d57829003601f168201915b5050505050908060020154905083565b606060008060008403610cf2576040517f08c379a0000000000000000000000000000000000000000000000000000000008152600401610ce9906128ee565b60405180910390fd5b600080600086815260200190815260200160002090508060010181600201546003600088815260200190815260200160002054828054610d319061247b565b80601f0160208091040260200160405190810160405280929190818152602001828054610d5d9061247b565b8015610daa5780601f10610d7f57610100808354040283529160200191610daa565b820191906000526020600020905b815481529060010190602001808311610d8d57829003601f168201915b50505050509250935093509350509193909250565b600960009054906101000a900473ffffffffffffffffffffffffffffffffffffffff1681565b610def82826117d7565b341015610e31576040517f08c379a0000000000000000000000000000000000000000000000000000000008152600401610e289061295a565b60405180910390fd5b610e3b82826118b7565b60076000815480929190610e4e90612404565b91905055506040518060c001604052806007548152602001838152602001828152602001610e7c84846117d7565b81526020013373ffffffffffffffffffffffffffffffffffffffff16815260200160006002811115610eb157610eb0611e40565b5b815250600160006007548152602001908152602001600020600082015181600001556020820151816001019080519060200190610eef929190611b01565b506040820151816002019080519060200190610f0c929190611b01565b506060820151816003015560808201518160040160006101000a81548173ffffffffffffffffffffffffffffffffffffffff021916908373ffffffffffffffffffffffffffffffffffffffff16021790555060a08201518160040160146101000a81548160ff02191690836002811115610f8957610f88611e40565b5b0217905550905050604051806060016040528060075481526020016040518060400160405280600981526020017f57617265686f7573650000000000000000000000000000000000000000000000815250815260200160006002811115610ff357610ff2611e40565b5b81525060026000600754815260200190815260200160002060008201518160000155602082015181600101908161102a9190612658565b5060408201518160020160006101000a81548160ff0219169083600281111561105657611055611e40565b5b02179055509050507fffa896d8919f0556f53ace1395617969a3b53ab5271a085e28ac0c4a3724e63d600160006007548152602001908152602001600020600001546040516110a59190611da6565b60405180910390a15050565b60016020528060005260406000206000915090508060000154908060030154908060040160009054906101000a900473ffffffffffffffffffffffffffffffffffffffff16908060040160149054906101000a900460ff16905084565b60085481565b60056020528060005260406000206000915054906101000a900473ffffffffffffffffffffffffffffffffffffffff1681565b600960009054906101000a900473ffffffffffffffffffffffffffffffffffffffff1673ffffffffffffffffffffffffffffffffffffffff163373ffffffffffffffffffffffffffffffffffffffff1614806111ec5750600460003373ffffffffffffffffffffffffffffffffffffffff1673ffffffffffffffffffffffffffffffffffffffff16815260200190815260200160002060009054906101000a900460ff165b61122b576040517f08c379a0000000000000000000000000000000000000000000000000000000008152600401611222906123b5565b60405180910390fd5b60006001600083815260200190815260200160002090506000816000015403611289576040517f08c379a000000000000000000000000000000000000000000000000000000000815260040161128090612776565b60405180910390fd5b6001600281111561129d5761129c611e40565b5b8160040160149054906101000a900460ff1660028111156112c1576112c0611e40565b5b14611301576040517f08c379a00000000000000000000000000000000000000000000000000000000081526004016112f8906129c6565b60405180910390fd5b600060026000848152602001908152602001600020905060028081111561132b5761132a611e40565b5b8160020160009054906101000a900460ff16600281111561134f5761134e611e40565b5b1461138f576040517f08c379a000000000000000000000000000000000000000000000000000000000815260040161138690612a32565b60405180910390fd5b60028260040160146101000a81548160ff021916908360028111156113b7576113b6611e40565b5b02179055507fe21fe02c1589242b30be2057f54fd54b7ddc463695d19ffdb54f9ebb0584f24a836040516113eb9190611da6565b60405180910390a1505050565b60065481565b600960009054906101000a900473ffffffffffffffffffffffffffffffffffffffff1673ffffffffffffffffffffffffffffffffffffffff163373ffffffffffffffffffffffffffffffffffffffff161461148e576040517f08c379a00000000000000000000000000000000000000000000000000000000081526004016114859061284e565b60405180910390fd5b80600460008473ffffffffffffffffffffffffffffffffffffffff1673ffffffffffffffffffffffffffffffffffffffff16815260200190815260200160002060006101000a81548160ff0219169083151502179055508173ffffffffffffffffffffffffffffffffffffffff167f5fe3a0cb9aeae856eac34445ace9544f3e15c21fa6f9bffeca60d662a690ca1b8260405161152b91906122ba565b60405180910390a25050565b60046020528060005260406000206000915054906101000a900460ff1681565b600960009054906101000a900473ffffffffffffffffffffffffffffffffffffffff1673ffffffffffffffffffffffffffffffffffffffff163373ffffffffffffffffffffffffffffffffffffffff1614806115fc5750600460003373ffffffffffffffffffffffffffffffffffffffff1673ffffffffffffffffffffffffffffffffffffffff16815260200190815260200160002060009054906101000a900460ff165b61163b576040517f08c379a0000000000000000000000000000000000000000000000000000000008152600401611632906123b5565b60405180910390fd5b60006002600085815260200190815260200160002090506000816000015403611699576040517f08c379a000000000000000000000000000000000000000000000000000000000815260040161169090612776565b60405180910390fd5b60006001600086815260200190815260200160002090506002808111156116c3576116c2611e40565b5b8360028111156116d6576116d5611e40565b5b1415806117185750600160028111156116f2576116f1611e40565b5b8160040160149054906101000a900460ff16600281111561171657611715611e40565b5b145b611757576040517f08c379a000000000000000000000000000000000000000000000000000000000815260040161174e906129c6565b60405180910390fd5b838260010190816117689190612658565b50828260020160006101000a81548160ff021916908360028111156117905761178f611e40565b5b02179055507fa5f0f6dee1b32440df6c1b0e42f904a911fe08d6ac7515c36ea3dd15046df23b8585856040516117c893929190611eb7565b60405180910390a15050505050565b600080600090505b83518110156118b05760008482815181106117fd576117fc612a52565b5b60200260200101519050600084838151811061181c5761181b612a52565b5b60200260200101519050600080600084815260200190815260200160002090506000816000015403611883576040517f08c379a000000000000000000000000000000000000000000000000000000000815260040161187a906128ee565b60405180910390fd5b8181600201546118939190612a81565b8561189e919061286e565b945050505080806001019150506117df565b5092915050565b6118c18282611904565b611900576040517f08c379a00000000000000000000000000000000000000000000000000000000081526004016118f790612b0f565b60405180910390fd5b5050565b600080600090505b8351811015611af657600084828151811061192a57611929612a52565b5b60200260200101519050600084838151811061194957611948612a52565b5b602002602001015190506000806000848152602001908152602001600020905060008160000154036119b0576040517f08c379a00000000000000000000000000000000000000000000000000000000081526004016119a7906128ee565b60405180910390fd5b8160036000858152602001908152602001600020541015611a06576040517f08c379a00000000000000000000000000000000000000000000000000000000081526004016119fd90612b7b565b60405180910390fd5b81600360008581526020019081526020016000206000828254611a299190612b9b565b925050819055506005600084815260200190815260200160002060009054906101000a900473ffffffffffffffffffffffffffffffffffffffff1673ffffffffffffffffffffffffffffffffffffffff166108fc838360020154611a8d9190612a81565b9081150290604051600060405180830381858888f19350505050611ae6576040517f08c379a0000000000000000000000000000000000000000000000000000000008152600401611add90612c41565b60405180910390fd5b505050808060010191505061190c565b506001905092915050565b828054828255906000526020600020908101928215611b3d579160200282015b82811115611b3c578251825591602001919060010190611b21565b5b509050611b4a9190611b4e565b5090565b5b80821115611b67576000816000905550600101611b4f565b5090565b6000604051905090565b600080fd5b600080fd5b600080fd5b600080fd5b6000601f19601f8301169050919050565b7f4e487b7100000000000000000000000000000000000000000000000000000000600052604160045260246000fd5b611bd282611b89565b810181811067ffffffffffffffff82111715611bf157611bf0611b9a565b5b80604052505050565b6000611c04611b6b565b9050611c108282611bc9565b919050565b600067ffffffffffffffff821115611c3057611c2f611b9a565b5b611c3982611b89565b9050602081019050919050565b82818337600083830152505050565b6000611c68611c6384611c15565b611bfa565b905082815260208101848484011115611c8457611c83611b84565b5b611c8f848285611c46565b509392505050565b600082601f830112611cac57611cab611b7f565b5b8135611cbc848260208601611c55565b91505092915050565b6000819050919050565b611cd881611cc5565b8114611ce357600080fd5b50565b600081359050611cf581611ccf565b92915050565b600080600060608486031215611d1457611d13611b75565b5b600084013567ffffffffffffffff811115611d3257611d31611b7a565b5b611d3e86828701611c97565b9350506020611d4f86828701611ce6565b9250506040611d6086828701611ce6565b9150509250925092565b600060208284031215611d8057611d7f611b75565b5b6000611d8e84828501611ce6565b91505092915050565b611da081611cc5565b82525050565b6000602082019050611dbb6000830184611d97565b92915050565b600081519050919050565b600082825260208201905092915050565b60005b83811015611dfb578082015181840152602081019050611de0565b60008484015250505050565b6000611e1282611dc1565b611e1c8185611dcc565b9350611e2c818560208601611ddd565b611e3581611b89565b840191505092915050565b7f4e487b7100000000000000000000000000000000000000000000000000000000600052602160045260246000fd5b60038110611e8057611e7f611e40565b5b50565b6000819050611e9182611e6f565b919050565b6000611ea182611e83565b9050919050565b611eb181611e96565b82525050565b6000606082019050611ecc6000830186611d97565b8181036020830152611ede8185611e07565b9050611eed6040830184611ea8565b949350505050565b60008060408385031215611f0c57611f0b611b75565b5b6000611f1a85828601611ce6565b9250506020611f2b85828601611ce6565b9150509250929050565b6000606082019050611f4a6000830186611d97565b8181036020830152611f5c8185611e07565b9050611f6b6040830184611d97565b949350505050565b60006060820190508181036000830152611f8d8186611e07565b9050611f9c6020830185611d97565b611fa96040830184611d97565b949350505050565b600073ffffffffffffffffffffffffffffffffffffffff82169050919050565b6000611fdc82611fb1565b9050919050565b611fec81611fd1565b82525050565b60006020820190506120076000830184611fe3565b92915050565b600067ffffffffffffffff82111561202857612027611b9a565b5b602082029050602081019050919050565b600080fd5b600061205161204c8461200d565b611bfa565b9050808382526020820190506020840283018581111561207457612073612039565b5b835b8181101561209d57806120898882611ce6565b845260208401935050602081019050612076565b5050509392505050565b600082601f8301126120bc576120bb611b7f565b5b81356120cc84826020860161203e565b91505092915050565b600080604083850312156120ec576120eb611b75565b5b600083013567ffffffffffffffff81111561210a57612109611b7a565b5b612116858286016120a7565b925050602083013567ffffffffffffffff81111561213757612136611b7a565b5b612143858286016120a7565b9150509250929050565b6003811061215e5761215d611e40565b5b50565b600081905061216f8261214d565b919050565b600061217f82612161565b9050919050565b61218f81612174565b82525050565b60006080820190506121aa6000830187611d97565b6121b76020830186611d97565b6121c46040830185611fe3565b6121d16060830184612186565b95945050505050565b6121e381611fd1565b81146121ee57600080fd5b50565b600081359050612200816121da565b92915050565b60008115159050919050565b61221b81612206565b811461222657600080fd5b50565b60008135905061223881612212565b92915050565b6000806040838503121561225557612254611b75565b5b6000612263858286016121f1565b925050602061227485828601612229565b9150509250929050565b60006020828403121561229457612293611b75565b5b60006122a2848285016121f1565b91505092915050565b6122b481612206565b82525050565b60006020820190506122cf60008301846122ab565b92915050565b600381106122e257600080fd5b50565b6000813590506122f4816122d5565b92915050565b60008060006060848603121561231357612312611b75565b5b600061232186828701611ce6565b935050602084013567ffffffffffffffff81111561234257612341611b7a565b5b61234e86828701611c97565b925050604061235f868287016122e5565b9150509250925092565b7f556e617574686f72697a65640000000000000000000000000000000000000000600082015250565b600061239f600c83611dcc565b91506123aa82612369565b602082019050919050565b600060208201905081810360008301526123ce81612392565b9050919050565b7f4e487b7100000000000000000000000000000000000000000000000000000000600052601160045260246000fd5b600061240f82611cc5565b91507fffffffffffffffffffffffffffffffffffffffffffffffffffffffffffffffff8203612441576124406123d5565b5b600182019050919050565b7f4e487b7100000000000000000000000000000000000000000000000000000000600052602260045260246000fd5b6000600282049050600182168061249357607f821691505b6020821081036124a6576124a561244c565b5b50919050565b60008190508160005260206000209050919050565b60006020601f8301049050919050565b600082821b905092915050565b60006008830261250e7fffffffffffffffffffffffffffffffffffffffffffffffffffffffffffffffff826124d1565b61251886836124d1565b95508019841693508086168417925050509392505050565b6000819050919050565b600061255561255061254b84611cc5565b612530565b611cc5565b9050919050565b6000819050919050565b61256f8361253a565b61258361257b8261255c565b8484546124de565b825550505050565b600090565b61259861258b565b6125a3818484612566565b505050565b5b818110156125c7576125bc600082612590565b6001810190506125a9565b5050565b601f82111561260c576125dd816124ac565b6125e6846124c1565b810160208510156125f5578190505b612609612601856124c1565b8301826125a8565b50505b505050565b600082821c905092915050565b600061262f60001984600802612611565b1980831691505092915050565b6000612648838361261e565b9150826002028217905092915050565b61266182611dc1565b67ffffffffffffffff81111561267a57612679611b9a565b5b612684825461247b565b61268f8282856125cb565b600060209050601f8311600181146126c257600084156126b0578287015190505b6126ba858261263c565b865550612722565b601f1984166126d0866124ac565b60005b828110156126f8578489015182556001820191506020850194506020810190506126d3565b868310156127155784890151612711601f89168261261e565b8355505b6001600288020188555050505b505050505050565b7f496e76616c6964206f7264657220494400000000000000000000000000000000600082015250565b6000612760601083611dcc565b915061276b8261272a565b602082019050919050565b6000602082019050818103600083015261278f81612753565b9050919050565b7f4f7264657220616c726561647920736869707065640000000000000000000000600082015250565b60006127cc601583611dcc565b91506127d782612796565b602082019050919050565b600060208201905081810360008301526127fb816127bf565b9050919050565b7f4e6f7420746865206f776e657200000000000000000000000000000000000000600082015250565b6000612838600d83611dcc565b915061284382612802565b602082019050919050565b600060208201905081810360008301526128678161282b565b9050919050565b600061287982611cc5565b915061288483611cc5565b925082820190508082111561289c5761289b6123d5565b5b92915050565b7f496e76616c69642070726f647563742049440000000000000000000000000000600082015250565b60006128d8601283611dcc565b91506128e3826128a2565b602082019050919050565b60006020820190508181036000830152612907816128cb565b9050919050565b7f496e73756666696369656e74207061796d656e74000000000000000000000000600082015250565b6000612944601483611dcc565b915061294f8261290e565b602082019050919050565b6000602082019050818103600083015261297381612937565b9050919050565b7f4f72646572206e6f742073686970706564207965740000000000000000000000600082015250565b60006129b0601583611dcc565b91506129bb8261297a565b602082019050919050565b600060208201905081810360008301526129df816129a3565b9050919050565b7f4f72646572206e6f742064656c69766572656420796574000000000000000000600082015250565b6000612a1c601783611dcc565b9150612a27826129e6565b602082019050919050565b60006020820190508181036000830152612a4b81612a0f565b9050919050565b7f4e487b7100000000000000000000000000000000000000000000000000000000600052603260045260246000fd5b6000612a8c82611cc5565b9150612a9783611cc5565b9250828202612aa581611cc5565b91508282048414831517612abc57612abb6123d5565b5b5092915050565b7f4f726465722070726f63657373696e67206661696c6564000000000000000000600082015250565b6000612af9601783611dcc565b9150612b0482612ac3565b602082019050919050565b60006020820190508181036000830152612b2881612aec565b9050919050565b7f496e73756666696369656e7420696e76656e746f727900000000000000000000600082015250565b6000612b65601683611dcc565b9150612b7082612b2f565b602082019050919050565b60006020820190508181036000830152612b9481612b58565b9050919050565b6000612ba682611cc5565b9150612bb183611cc5565b9250828203905081811115612bc957612bc86123d5565b5b92915050565b7f4661696c656420746f207472616e73666572207061796d656e7420746f20707260008201527f6f64756374206f776e6572000000000000000000000000000000000000000000602082015250565b6000612c2b602b83611dcc565b9150612c3682612bcf565b604082019050919050565b60006020820190508181036000830152612c5a81612c1e565b905091905056fea26469706673582212205dca23193065f11495c25e251fe4bc872a25d0d01a351628ada992af186bef4d64736f6c63430008180033",
  "linkReferences": {},
  "deployedLinkReferences": {}
}